:100000000C9463000C948B000C948B000C948B006C
:100010000C948B000C948B000C948B000C948B0034
:100020000C948B000C948B000C948B000C948B0024
:100030000C948B000C948B000C948B000C948B0014
:100040000C949B060C948B000C9469060C9443064C
:100050000C948B000C948B000C948B000C948B00F4
:100060000C948B000C948B000000000024002700EF
:100070002A000000000023002600290000000008DC
:10008000000201000003040700000000000000005F
:10009000010204081020408001020408102001021F
:1000A0000408102000000000250028002B00040494
:1000B0000404040404040202020202020303030310
:1000C0000303E506B00811241FBECFEFD8E0DEBF62
:1000D000CDBF11E0A0E0B1E0EEEBF5E102C005908C
:1000E0000D92AC36B107D9F722E0ACE6B1E001C021
:1000F0001D92AF32B207E1F710E0C2E6D0E004C0D3
:100100002197FE010E94A709C136D107C9F70E94B5
:1001100083070C94D20A0C940000DC0190911D021C
:10012000992361F0699FB0011124672F949FA0016A
:100130001124452F929F90011124232F30912302E7
:10014000E0911E02F0911F028091200238131AC024
:10015000CD01880F991F8A0F9B1F8E0F9F1FE09163
:100160002002E80FF92FF11D6083E0912102E80FD2
:10017000F92FF11D408330912202830F911DFC0164
:1001800020830895CD01880F991F880F991F8E0F26
:100190009F1FFC01E30FF11D1082E1CFAF92BF92D0
:1001A000CF92DF92EF92FF920F931F93CF93DF9343
:1001B0006C017B018B01040F151FEB015E01AE1872
:1001C000BF08C017D10759F06991D601ED91FC9194
:1001D0000190F081E02DC6010995892B79F7C501C1
:1001E000DF91CF911F910F91FF90EF90DF90CF9013
:1001F000BF90AF900895FC01538D448D252F30E0C2
:10020000842F90E0821B930B541710F0CF96089523
:1002100001970895FC01918D828D981761F0A28D50
:10022000AE0FBF2FB11D5D968C91928D9F5F9F7316
:10023000928F90E008958FEF9FEF0895FC01918DCC
:10024000828D981731F0828DE80FF11D858D90E039
:1002500008958FEF9FEF0895FC01918D228D892FD6
:1002600090E0805C9F4F821B91098F7399270895BE
:1002700089E791E00E942C0121E0892B09F420E01C
:10028000822F089580E090E0892B29F00E943801A8
:1002900081110C9400000895FC01A48DA80FB92FC2
:1002A000B11DA35ABF4F2C91848D90E001968F739E
:1002B0009927848FA689B7892C93A089B1898C91BD
:1002C000837080648C93938D848D981306C002880C
:1002D000F389E02D80818F7D80830895EF92FF92D6
:1002E0000F931F93CF93DF93EC0181E0888F9B8D59
:1002F0008C8D98131AC0E889F989808185FF15C013
:100300009FB7F894EE89FF896083E889F989808135
:100310008370806480839FBF81E090E0DF91CF9104
:100320001F910F91FF90EF900895F62E0B8D10E026
:100330000F5F1F4F0F731127E02E8C8D8E110CC095
:100340000FB607FCFACFE889F989808185FFF5CFE0
:10035000CE010E944C01F1CFEB8DEC0FFD2FF11D72
:10036000E35AFF4FF0829FB7F8940B8FEA89FB891D
:1003700080818062CFCFCF93DF93EC01888D88237B
:10038000B9F0AA89BB89E889F9898C9185FD03C0F8
:10039000808186FD0DC00FB607FCF7CF8C9185FFDD
:1003A000F2CF808185FFEDCFCE010E944C01E9CFD5
:1003B000DF91CF910895833081F028F4813099F056
:1003C0008230A9F008958730A9F08830C9F08430D0
:1003D000B1F4809180008F7D03C0809180008F7781
:1003E00080938000089584B58F7784BD089584B587
:1003F0008F7DFBCF8091B0008F778093B000089500
:100400008091B0008F7DF9CFCF93DF93282F30E01C
:10041000F901E458FF4F8491F901E057FF4FD4915F
:10042000F901E255FF4FC491CC2391F081110E9454
:10043000DB01EC2FF0E0EE0FFF1FEC55FF4FA59115
:10044000B4918FB7F894EC91D095DE23DC938FBFF5
:10045000DF91CF910895CF93DF93282F30E0F901FA
:10046000E458FF4F8491F901E057FF4FD491F9010F
:10047000E255FF4FC491CC23A1F081110E94DB0112
:10048000EC2FF0E0EE0FFF1FEE58FF4FA591B49157
:10049000EC91ED2381E090E009F480E0DF91CF91D1
:1004A000089580E090E0FACFCF93DF9390E0FC01D5
:1004B000E057FF4F249182559F4FFC018491882380
:1004C000C9F090E0880F991FFC01E859FF4FA591F2
:1004D000B491FC01EC55FF4FC591D49161110DC051
:1004E0009FB7F8948C91209582238C938881282340
:1004F00028839FBFDF91CF910895623051F49FB759
:10050000F8943C91822F809583238C93E8812E2B45
:10051000EFCF8FB7F894EC912E2B2C938FBFEACFAF
:100520003FB7F8948091750190917601A091770181
:10053000B091780126B5A89B05C02F3F19F0019610
:10054000A11DB11D3FBFBA2FA92F982F8827BC012D
:10055000CD01620F711D811D911D42E0660F771F55
:10056000881F991F4A95D1F708950F931F93CF9332
:10057000DF93CDB7DEB729970FB6F894DEBF0FBE75
:10058000CDBF0E949002009124021091250220917B
:10059000260230912702601B710B820B930B6C3289
:1005A00071408105910568F3F89480911A02909149
:1005B0001B029A838983E0911E02F0911F02DF01E2
:1005C00011968081898790911602E0912802F0911E
:1005D000290280912A02992309F445C09081982B21
:1005E00098879081809589238F838F818C8388E081
:1005F0008B8358856F8149853B812C8189819A81C4
:10060000508347FD252F3A952083262F39F0441F2C
:1006100000C000006083000000C0F2CF38E04D91C0
:1006200060830000019761F7F0932902E0932802AC
:1006300049873B832C839A83898378940E94900214
:1006400060932402709325028093260290932702E0
:1006500029960FB6F894DEBF0FBECDBFDF91CF91C4
:100660001F910F9108959081982B98879081809584
:1006700089238F838F818E8388E08D8358856F8156
:1006800049853D812E8189819A81508347FD252F9F
:1006900000C000C0208300C000C000C000C000C077
:1006A00060830000262F3A9541F0441F000000C0EF
:1006B00000C000C000C000C0E8CF38E04D9100C0CD
:1006C000608300C0019709F7F0932902E0932802A4
:1006D00049873D832E83AFCF40916C0150916D01CE
:1006E00060916E0170916F012FB7F8948091710144
:1006F00090917201A0917301B09174012FBF80930A
:100700006C0190936D01A0936E01B0936F01809185
:100710006C0190916D01A0916E01B0916F01841BED
:10072000950BA60BB70B0297A105B105E8F208954A
:100730000F931F93E0911802F09119028E179F07F3
:1007400080F515950795029FF001039FF00D129F0C
:10075000F00D11249F01220F232F221F330B37FD91
:1007600020E0049FF001059FF00D149FF00D11246F
:10077000AF01440F452F441F550B57FD40E0069F26
:10078000F001079FF00D169FF00D1124BF01660FB9
:10079000672F661F770B77FD60E01F910F910C9418
:1007A0008D001F910F910895AF92BF92CF92DF926B
:1007B000EF92FF920F931F93CF93DF935C016091B1
:1007C0006C0170916D0180916E0190916F01CB0170
:1007D000772766272DE13EE440E050E00E944E0975
:1007E000E901F12CE12CCC24CA94D12C4D2F5527B2
:1007F0004535510510F59A01220F331F240F351F7F
:10080000B601621B730B50E040E08501C7010E94F6
:100810009803C655D54F8FEFE81AF80A88E1E81615
:10082000F10421F7DF91CF911F910F91FF90EF908D
:10083000DF90CF90BF90AF9008954A3A510568F489
:10084000455551099A01220F331F420F531F96013C
:10085000241B350B70E060E0D8CF4A5A5109BA0129
:10086000660F771F640F751FA601461B570B30E0FC
:1008700020E0CBCF2F923F924F925F926F927F9268
:100880008F929F92AF92BF92CF92DF92EF92FF92A0
:100890000F931F93CF93DF93CDB7DEB72C970FB68F
:1008A000F894DEBF0FBECDBF5C017A83698397FDEC
:1008B00003969C0135952795359527953A87298785
:1008C00089819A81181619060CF0E7C002979A835D
:1008D000898386E00E942B02892B09F0D2C0C09048
:1008E0006C01D0906D01E0906E01F0906F01C70136
:1008F000B60125E235E740E050E00E944E099B0139
:10090000AC01A0E0B8E10E943B092B013C0120E0D2
:1009100035E245E750E00E944E092D833E834F8328
:100920005887C301B20125E235E740E050E00E945C
:100930004E09C90199279C838B83C60177276627B7
:100940002DE13EE440E050E00E944E09232F332782
:100950002535310508F072C06901CC0CDD1CC20ED2
:10096000D31E2FEF30E02C193D093C872B87F12C4B
:10097000E12C150190E8A916B1041CF04FE7242ED4
:10098000312C20E4221631041CF430E4232E312CC7
:10099000912C812C80911802909119028816990649
:1009A00030F420E040E060E0C4010E948D003FEFA1
:1009B000831A930A88E18816910461F78FEF90E01B
:1009C0002B813C81821B930B829D8001839D100DA6
:1009D000929D100D1124000F012F001F110B119576
:1009E0009601A7016B857C858D819E810E9498036D
:1009F0008D819E8101962B813C81229D8001239DCA
:100A0000100D329D100D1124000F012F001F110B2E
:100A10001195B4010E947F099601A7016B857C8521
:100A20000E9498030E946C0380911E0290911F0205
:100A3000892B09F445CF0E94B50242CF2A3A3105ED
:100A400078F4255531097901EE0CFF1CE20EF31EF6
:100A5000CC24CA94D12CCE18DF081C861B8689CFE3
:100A60002A5A3109C901880F991F820F931F9C8749
:100A70008B87EE24EA94F12CE81AF90AD12CC12CC8
:100A800078CF84E00E942B02892B29F489859A85EE
:100A90000E94D403C7CFC501FBCF2C960FB6F894A4
:100AA000DEBF0FBECDBFDF91CF911F910F91FF90A1
:100AB000EF90DF90CF90BF90AF909F908F907F90FE
:100AC0006F905F904F903F902F900895EF92FF921C
:100AD0000F931F93CF93DF937C018B01C6E4D0E08B
:100AE000B801CE010E943A042197EC16FD06C1F729
:100AF000B801CE010E943A042196C634D105C1F74F
:100B0000DF91CF911F910F91FF90EF9008950F9378
:100B10001F93CF93DF938C01000F111F000F111F44
:100B20006AE070E080E490E00E94660566E070E0B4
:100B30008CE390E00E946605D0E0C0E0C017D107CA
:100B400044F463E070E082E390E00E946605219641
:100B5000F5CF66E070E08CE390E00E94660566E009
:100B600070E08CE390E00E9466056AE070E080E44B
:100B700090E00E9466056AE070E080E490E0DF911A
:100B8000CF911F910F910C9466050F931F93CF93F4
:100B9000DF938C01000F111F000F111F6AE070E03E
:100BA00080E490E00E946605D0E0C0E0C017D10765
:100BB00044F466E070E08CE390E00E9466052196C4
:100BC000F5CF6AE070E080E490E00E9466056AE09C
:100BD00070E080E490E00E9466056AE070E080E4E6
:100BE00090E0DF91CF911F910F910C9466050F93C8
:100BF0001F93CF93DF938C01000F111F000F111F64
:100C0000D0E0C0E0C017D10744F46AE070E080E4AF
:100C100090E00E9466052196F5CFDF91CF911F915C
:100C20000F910895CF93DF93FC0101900020E9F725
:100C30003197AF01481B590BBC0189E791E00E9435
:100C4000CE00EC0142E050E069E671E089E791E016
:100C50000E94CE008C0F9D1FDF91CF910895CF93FE
:100C6000DF93EC010E940C0965E070E00E9493099B
:100C70008C0F9D1F02971816190614F081E090E062
:100C8000DF91CF9108951F920F920FB60F9211240A
:100C90002F933F934F935F936F937F938F939F9384
:100CA000AF93BF93EF93FF9389E791E00E944C01CC
:100CB000FF91EF91BF91AF919F918F917F916F9134
:100CC0005F914F913F912F910F900FBE0F901F900A
:100CD00018951F920F920FB60F9211242F938F9396
:100CE0009F93EF93FF93E0918901F0918A018081B6
:100CF000E0918F01F091900182FD1BC09081809165
:100D000092018F5F8F7320919301821741F0E091E0
:100D10009201F0E0E758FE4F958F80939201FF918A
:100D2000EF919F918F912F910F900FBE0F901F9079
:100D300018958081F4CF1F920F920FB60F92112455
:100D40002F933F938F939F93AF93BF9380917101A4
:100D500090917201A0917301B09174013091700172
:100D600023E0230F2D3758F50196A11DB11D2093C7
:100D700070018093710190937201A0937301B093FD
:100D800074018091750190917601A0917701B091E5
:100D900078010196A11DB11D809375019093760194
:100DA000A0937701B0937801BF91AF919F918F91FC
:100DB0003F912F910F900FBE0F901F90189526E82E
:100DC000230F0296A11DB11DD2CF10927C0110926B
:100DD0007B0188EE93E0A0E0B0E080937D019093EA
:100DE0007E01A0937F01B09380018BE591E0909309
:100DF0007A018093790185EC90E09093860180934D
:100E0000850184EC90E0909388018093870180ECC9
:100E100090E090938A018093890181EC90E0909317
:100E20008C0180938B0182EC90E090938E018093F3
:100E30008D0186EC90E09093900180938F01109249
:100E400092011092930110929401109295011092C8
:100E5000170210921D021092240210922502109285
:100E600026021092270281E08093230280932002C1
:100E70001092210292E0909322028093160288E45D
:100E800090E090931B0280931A020E94AD09909308
:100E90001F0280931E02009769F128E4FC01119261
:100EA0002A95E9F788E190E090931902809318025F
:100EB00082E080931C0280911702882339F061E060
:100EC00082E00E94540282E00E940402E0EBF0E023
:100ED000E491F0E0EE0FFF1FEC55FF4F85919491E8
:100EE0009093290280932802E2E9F0E0E491E093F4
:100EF0002A02089510921B0210921A0210921902EF
:100F000010921802D5CF789484B5826084BD84B5E0
:100F1000816084BD85B5826085BD85B5816085BDF4
:100F200080916E00816080936E00109281008091AC
:100F30008100826080938100809181008160809334
:100F40008100809180008160809380008091B10059
:100F500084608093B1008091B00081608093B00084
:100F600080917A00846080937A0080917A00826018
:100F700080937A0080917A00816080937A008091DA
:100F80007A00806880937A001092C100E091890114
:100F9000F0918A0182E08083E0918901F0918A01D9
:100FA0001082E0918501F09186011082E091870125
:100FB000F091880180E1808310929101E0918D0190
:100FC000F0918E0186E08083E0918B01F0918C019D
:100FD000808180618083E0918B01F0918C01808120
:100FE00088608083E0918B01F0918C018081806822
:100FF0008083E0918B01F0918C0180818F7D8083D3
:1010000061E08DE00E94540261E082E00E9454029F
:1010100061E085E00E94540262E084E00E94540294
:1010200062E086E00E9454028DE00E94040285E0A6
:101030000E94040280911C0287FD07C061E00E94AB
:10104000540280911C020E94040281E080931702E6
:1010500080911E0290911F02892B11F00E94B5020F
:101060008BE691E00E94120680E091E00E94120659
:1010700080E480937C0080917A00806480937A0081
:1010800080917A0086FDFCCF809178009091790064
:101090000E9411090E946C03D0E0C0E068E270E099
:1010A000CE010E943A042196C634D105B9F70AE070
:1010B00010E0C4E680E0E82E80E0F82E0E940C09E3
:1010C000B8010E9493098930910508F046C0FC01DF
:1010D000E459F74F0C94A709750885088C088F0808
:1010E000960899087508A708AA088AE090E00E9467
:1010F0002F060E94F705E114F10401F30E94380164
:101100008823E1F20E940000D9CF85E090E00E94A0
:101110002F060E94C505EFCF88E090E0E8CF86E07B
:1011200090E00E942F060E948705E5CF83E090E0C3
:10113000DECF8FE090E00E942F06C89FB001C99FCC
:10114000700D112480E490E00E943A04D4CF8AE02C
:1011500090E0DDCF85E090E0EECF8AE090E0E1CF57
:1011600080911E0290911F02009711F00E94490A7F
:1011700080911C0287FD03C060E00C945402089526
:101180008F929F92AF92BF92CF92DF92EF92FF9297
:10119000CF93DF93EC01688179818A819B8161150E
:1011A00071058105910521F464E279ED8BE597E005
:1011B0002DE133EF41E050E00E941C0949015A0142
:1011C0009B01AC01A7EAB1E40E943B096B017C01E1
:1011D000ACEEB4EFA50194010E944909DC01CB01FA
:1011E0008C0D9D1DAE1DBF1DB7FF03C00197A1094A
:1011F000B04888839983AA83BB839F77DF91CF917F
:10120000FF90EF90DF90CF90BF90AF909F908F9026
:1012100008950E94C00808958DE491E00E94C008DE
:101220000895B0E0A0E080934D0190934E01A0930B
:101230004F01B09350010895052E97FB1EF40094C2
:101240000E94330957FD07D00E944E0907FC03D0C6
:101250004EF40C94330950954095309521953F4FAD
:101260004F4F5F4F089590958095709561957F4F92
:101270008F4F9F4F08950E947009A59F900DB49FB6
:10128000900DA49F800D911D11240895B7FF0C941B
:101290003B090E943B09821B930B0895A1E21A2E81
:1012A000AA1BBB1BFD010DC0AA1FBB1FEE1FFF1F0A
:1012B000A217B307E407F50720F0A21BB30BE40B5A
:1012C000F50B661F771F881F991F1A9469F76095A1
:1012D0007095809590959B01AC01BD01CF0108955B
:1012E000A29FB001B39FC001A39F700D811D112467
:1012F000911DB29F700D811D1124911D0895AA1B8F
:10130000BB1B51E107C0AA1FBB1FA617B70710F0F0
:10131000A61BB70B881F991F5A95A9F78095909522
:10132000BC01CD01089597FB072E16F4009407D059
:1013300077FD09D00E947F0907FC05D03EF4909507
:1013400081959F4F0895709561957F4F0895EE0F99
:10135000FF1F0590F491E02D09940F931F93CF93F5
:10136000DF938230910510F482E090E0E0912D024D
:10137000F0912E0230E020E0B0E0A0E0309799F448
:101380002115310509F44AC0281B390B24303105D9
:10139000D8F58A819B816115710589F1FB019383E1
:1013A0008283FE0111C0408151810281138148175F
:1013B0005907E0F04817590799F4109761F0129611
:1013C0000C93129713961C933296CF01DF91CF9115
:1013D0001F910F91089500932D0210932E02F4CFC8
:1013E0002115310551F04217530738F0A901DB01EF
:1013F0009A01BD01DF01F801C1CFEF01F9CF909350
:101400002E0280932D02CDCFFE01E20FF31F8193B8
:1014100091932250310939832883D7CF20912B0211
:1014200030912C02232B41F420915301309154012F
:1014300030932C0220932B022091510130915201C4
:101440002115310541F42DB73EB74091550150911A
:101450005601241B350BE0912B02F0912C02E21770
:10146000F307A0F42E1B3F0B2817390778F0AC01C7
:101470004E5F5F4F2417350748F04E0F5F1F5093A4
:101480002C0240932B02819391939FCFF0E0E0E0F8
:101490009CCFCF93DF930097E9F0FC013297138242
:1014A0001282A0912D02B0912E02ED0130E020E0D9
:1014B0001097A1F420813181820F931F20912B027C
:1014C00030912C022817390709F061C0F0932C02E3
:1014D000E0932B02DF91CF910895EA01CE17DF0749
:1014E000E8F54A815B819E0141155105B1F7E9019B
:1014F000FB83EA8349915991C40FD51FEC17FD076F
:1015000061F4808191810296840F951FE90199838E
:101510008883828193819B838A83F0E0E0E0129646
:101520008D919C9113970097B9F52D913C9111974E
:10153000CD010296820F931F20912B0230912C0235
:101540002817390739F6309751F510922E0210926C
:101550002D02B0932C02A0932B02BCCFD383C28365
:1015600040815181840F951FC817D90761F44E5FE0
:101570005F4F88819981480F591F518340838A8129
:101580009B81938382832115310509F0B0CFF093BD
:101590002E02E0932D029ECFFD01DC01C0CF13820D
:1015A0001282D7CF10E0C2E6D0E004C0FE010E9454
:0E15B000A7092196C336D107C9F7F894FFCFDB
:1015BE006D616465206279204A61636B20576869AA
:1015CE007468616D207573696E67206C6F7473201B
:1015DE006F6620626F72726F77656420636F6465E9
:1015EE002120746869732076657273696F6E206648
:1015FE00726F6D2030342F31322F323100010000E6
:10160E000000002F028000000000006E01CE00FBE3
:0C161E0000BB012C010A011E010D0A0096
:00000001FF
