:100000000C9463000C948B000C948B000C948B006C
:100010000C948B000C948B000C948B000C948B0034
:100020000C948B000C948B000C948B000C948B0024
:100030000C948B000C948B000C948B000C948B0014
:100040000C94AB060C948B000C9479060C9453061C
:100050000C948B000C948B000C948B000C948B00F4
:100060000C948B000C948B000000000024002700EF
:100070002A000000000023002600290000000008DC
:10008000000201000003040700000000000000005F
:10009000010204081020408001020408102001021F
:1000A0000408102000000000250028002B00040494
:1000B0000404040404040202020202020303030310
:1000C0000303F506C00811241FBECFEFD8E0DEBF42
:1000D000CDBF11E0A0E0B1E0EEEDF5E102C005908A
:1000E0000D92A439B107D9F722E0A4E9B1E001C02B
:1000F0001D92A735B207E1F710E0C2E6D0E004C0D8
:100100002197FE010E94B709C136D107C9F70E94A5
:1001100093070C94E20A0C940000DC0190914502D4
:10012000992361F0699FB0011124672F949FA0016A
:100130001124452F929F90011124232F30914B02BF
:10014000E0914602F09147028091480238131AC0AC
:10015000CD01880F991F8A0F9B1F8E0F9F1FE09163
:100160004802E80FF92FF11D6083E0914902E80F82
:10017000F92FF11D408330914A02830F911DFC013C
:1001800020830895CD01880F991F880F991F8E0F26
:100190009F1FFC01E30FF11D1082E1CFAF92BF92D0
:1001A000CF92DF92EF92FF920F931F93CF93DF9343
:1001B0006C017B018B01040F151FEB015E01AE1872
:1001C000BF08C017D10759F06991D601ED91FC9194
:1001D0000190F081E02DC6010995892B79F7C501C1
:1001E000DF91CF911F910F91FF90EF90DF90CF9013
:1001F000BF90AF900895FC01538D448D252F30E0C2
:10020000842F90E0821B930B541710F0CF96089523
:1002100001970895FC01918D828D981761F0A28D50
:10022000AE0FBF2FB11D5D968C91928D9F5F9F7316
:10023000928F90E008958FEF9FEF0895FC01918DCC
:10024000828D981731F0828DE80FF11D858D90E039
:1002500008958FEF9FEF0895FC01918D228D892FD6
:1002600090E0805C9F4F821B91098F7399270895BE
:1002700081EA91E00E942C0121E0892B09F420E021
:10028000822F089580E090E0892B29F00E943801A8
:1002900081110C9400000895FC01A48DA80FB92FC2
:1002A000B11DA35ABF4F2C91848D90E001968F739E
:1002B0009927848FA689B7892C93A089B1898C91BD
:1002C000837080648C93938D848D981306C002880C
:1002D000F389E02D80818F7D80830895EF92FF92D6
:1002E0000F931F93CF93DF93EC0181E0888F9B8D59
:1002F0008C8D98131AC0E889F989808185FF15C013
:100300009FB7F894EE89FF896083E889F989808135
:100310008370806480839FBF81E090E0DF91CF9104
:100320001F910F91FF90EF900895F62E0B8D10E026
:100330000F5F1F4F0F731127E02E8C8D8E110CC095
:100340000FB607FCFACFE889F989808185FFF5CFE0
:10035000CE010E944C01F1CFEB8DEC0FFD2FF11D72
:10036000E35AFF4FF0829FB7F8940B8FEA89FB891D
:1003700080818062CFCFCF93DF93EC01888D88237B
:10038000B9F0AA89BB89E889F9898C9185FD03C0F8
:10039000808186FD0DC00FB607FCF7CF8C9185FFDD
:1003A000F2CF808185FFEDCFCE010E944C01E9CFD5
:1003B000DF91CF910895833081F028F4813099F056
:1003C0008230A9F008958730A9F08830C9F08430D0
:1003D000B1F4809180008F7D03C0809180008F7781
:1003E00080938000089584B58F7784BD089584B587
:1003F0008F7DFBCF8091B0008F778093B000089500
:100400008091B0008F7DF9CFCF93DF93282F30E01C
:10041000F901E458FF4F8491F901E057FF4FD4915F
:10042000F901E255FF4FC491CC2391F081110E9454
:10043000DB01EC2FF0E0EE0FFF1FEC55FF4FA59115
:10044000B4918FB7F894EC91D095DE23DC938FBFF5
:10045000DF91CF910895CF93DF93282F30E0F901FA
:10046000E458FF4F8491F901E057FF4FD491F9010F
:10047000E255FF4FC491CC23A1F081110E94DB0112
:10048000EC2FF0E0EE0FFF1FEE58FF4FA591B49157
:10049000EC91ED2381E090E009F480E0DF91CF91D1
:1004A000089580E090E0FACFCF93DF9390E0FC01D5
:1004B000E057FF4F249182559F4FFC018491882380
:1004C000C9F090E0880F991FFC01E859FF4FA591F2
:1004D000B491FC01EC55FF4FC591D49161110DC051
:1004E0009FB7F8948C91209582238C938881282340
:1004F00028839FBFDF91CF910895623051F49FB759
:10050000F8943C91822F809583238C93E8812E2B45
:10051000EFCF8FB7F894EC912E2B2C938FBFEACFAF
:100520003FB7F89480919D0190919E01A0919F0109
:10053000B091A00126B5A89B05C02F3F19F00196E8
:10054000A11DB11D3FBFBA2FA92F982F8827BC012D
:10055000CD01620F711D811D911D42E0660F771F55
:10056000881F991F4A95D1F708950F931F93CF9332
:10057000DF93CDB7DEB729970FB6F894DEBF0FBE75
:10058000CDBF0E94900200914C0210914D0220912B
:100590004E0230914F02601B710B820B930B6C3239
:1005A00071408105910568F3F89480914202909121
:1005B00043029A838983E0914602F0914702DF016A
:1005C00011968081898790913E02E0915002F091CE
:1005D000510280915202992309F445C09081982BD1
:1005E00098879081809589238F838F818C8388E081
:1005F0008B8358856F8149853B812C8189819A81C4
:10060000508347FD252F3A952083262F39F0441F2C
:1006100000C000006083000000C0F2CF38E04D91C0
:1006200060830000019761F7F0935102E09350025C
:1006300049873B832C839A83898378940E94900214
:1006400060934C0270934D0280934E0290934F0240
:1006500029960FB6F894DEBF0FBECDBFDF91CF91C4
:100660001F910F9108959081982B98879081809584
:1006700089238F838F818E8388E08D8358856F8156
:1006800049853D812E8189819A81508347FD252F9F
:1006900000C000C0208300C000C000C000C000C077
:1006A00060830000262F3A9541F0441F000000C0EF
:1006B00000C000C000C000C0E8CF38E04D9100C0CD
:1006C000608300C0019709F7F0935102E093500254
:1006D00049873D832E83AFCF40919401509195017E
:1006E00060919601709197012FB7F89480919901CC
:1006F00090919A01A0919B01B0919C012FBF809392
:10070000940190939501A0939601B09397018091E5
:10071000940190919501A0919601B0919701841B4D
:10072000950BA60BB70B0297A105B105E8F208954A
:100730000F931F93E0914002F09141028E179F07A3
:1007400080F515950795029FF001039FF00D129F0C
:10075000F00D11249F01220F232F221F330B37FD91
:1007600020E0049FF001059FF00D149FF00D11246F
:10077000AF01440F452F441F550B57FD40E0069F26
:10078000F001079FF00D169FF00D1124BF01660FB9
:10079000672F661F770B77FD60E01F910F910C9418
:1007A0008D001F910F910895AF92BF92CF92DF926B
:1007B000EF92FF920F931F93CF93DF935C016091B1
:1007C0009401709195018091960190919701EDE1CE
:1007D000CE2EEEE4DE2EE12CF12CA70196010E9434
:1007E0005E09CB0177276627A70196010E945E0963
:1007F000E901F12CE12CCC24CA94D12C4D2F5527A2
:100800004535510510F59A01220F331F240F351F6E
:10081000B601621B730B50E040E08501C7010E94E6
:100820009803C655D54F8FEFE81AF80A88E1E81605
:10083000F10421F7DF91CF911F910F91FF90EF907D
:10084000DF90CF90BF90AF9008954A3A510568F479
:10085000455551099A01220F331F420F531F96012C
:10086000241B350B70E060E0D8CF4A5A5109BA0119
:10087000660F771F640F751FA601461B570B30E0EC
:1008800020E0CBCF2F923F924F925F926F927F9258
:100890008F929F92AF92BF92CF92DF92EF92FF9290
:1008A0000F931F93CF93DF93CDB7DEB72C970FB67F
:1008B000F894DEBF0FBECDBF5C017A83698397FDDC
:1008C00003969C0135952795359527953A87298775
:1008D00089819A81181619060CF0EFC002979A8345
:1008E000898386E00E942B02892B09F0DAC0C09030
:1008F0009401D0909501E0909601F0909701C70186
:10090000B60125E235E740E050E00E945E099B0118
:10091000AC01A0E0B8E10E944B092B013C0120E0B2
:1009200035E245E750E00E945E092D833E834F8308
:100930005887C301B20125E235E740E050E00E944C
:100940005E09C90199279C838B83C701B6012DE1FC
:100950003EE440E050E00E945E09CB017727662725
:100960002DE13EE440E050E00E945E09232F332752
:100970002535310508F072C06901CC0CDD1CC20EB2
:10098000D31E2FEF30E02C193D093C872B87F12C2B
:10099000E12C150190E8A916B1041CF04FE7242EB4
:1009A000312C20E4221631041CF430E4232E312CA7
:1009B000912C812C809140029091410288169906D9
:1009C00030F420E040E060E0C4010E948D003FEF81
:1009D000831A930A88E18816910461F78FEF90E0FB
:1009E0002B813C81821B930B829D8001839D100D86
:1009F000929D100D1124000F012F001F110B119556
:100A00009601A7016B857C858D819E810E9498034C
:100A10008D819E8101962B813C81229D8001239DA9
:100A2000100D329D100D1124000F012F001F110B0E
:100A30001195B4010E948F099601A7016B857C85F1
:100A40000E9498030E946C03809146029091470295
:100A5000892B09F43DCF0E94B5023ACF2A3A3105DD
:100A600078F4255531097901EE0CFF1CE20EF31ED6
:100A7000CC24CA94D12CCE18DF081C861B8689CFC3
:100A80002A5A3109C901880F991F820F931F9C8729
:100A90008B87EE24EA94F12CE81AF90AD12CC12CA8
:100AA00078CF84E00E942B02892B29F489859A85CE
:100AB0000E94D403C7CFC501FBCF2C960FB6F89484
:100AC000DEBF0FBECDBFDF91CF911F910F91FF9081
:100AD000EF90DF90CF90BF90AF909F908F907F90DE
:100AE0006F905F904F903F902F900895EF92FF92FC
:100AF0000F931F93CF93DF937C018B01C6E4D0E06B
:100B0000B801CE010E9442042197EC16FD06C1F700
:100B1000B801CE010E9442042196C634D105C1F726
:100B2000DF91CF911F910F91FF90EF9008950F9358
:100B30001F93CF93DF938C01000F111F000F111F24
:100B40006AE070E080E490E00E94760566E070E084
:100B50008CE390E00E947605D0E0C0E0C017D1079A
:100B600044F463E070E082E390E00E947605219611
:100B7000F5CF66E070E08CE390E00E94760566E0D9
:100B800070E08CE390E00E9476056AE070E080E41B
:100B900090E00E9476056AE070E080E490E0DF91EA
:100BA000CF911F910F910C9476050F931F93CF93C4
:100BB000DF938C01000F111F000F111F6AE070E01E
:100BC00080E490E00E947605D0E0C0E0C017D10735
:100BD00044F466E070E08CE390E00E947605219694
:100BE000F5CF6AE070E080E490E00E9476056AE06C
:100BF00070E080E490E00E9476056AE070E080E4B6
:100C000090E0DF91CF911F910F910C9476050F9397
:100C10001F93CF93DF938C01000F111F000F111F43
:100C2000D0E0C0E0C017D10744F46AE070E080E48F
:100C300090E00E9476052196F5CFDF91CF911F912C
:100C40000F910895CF93DF93FC0101900020E9F705
:100C50003197AF01481B590BBC0181EA91E00E941A
:100C6000CE00EC0142E050E061E971E081EA91E000
:100C70000E94CE008C0F9D1FDF91CF910895CF93DE
:100C8000DF93EC010E941C0965E070E00E94A3095B
:100C90008C0F9D1F02971816190614F081E090E042
:100CA000DF91CF9108951F920F920FB60F921124EA
:100CB0002F933F934F935F936F937F938F939F9364
:100CC000AF93BF93EF93FF9381EA91E00E944C01B1
:100CD000FF91EF91BF91AF919F918F917F916F9114
:100CE0005F914F913F912F910F900FBE0F901F90EA
:100CF00018951F920F920FB60F9211242F938F9376
:100D00009F93EF93FF93E091B101F091B201808145
:100D1000E091B701F091B80182FD1BC090818091F4
:100D2000BA018F5F8F732091BB01821741F0E09170
:100D3000BA01F0E0EF55FE4F958F8093BA01FF9115
:100D4000EF919F918F912F910F900FBE0F901F9059
:100D500018958081F4CF1F920F920FB60F92112435
:100D60002F933F938F939F93AF93BF93809199015C
:100D700090919A01A0919B01B0919C0130919801B2
:100D800023E0230F2D3758F50196A11DB11D2093A7
:100D900098018093990190939A01A0939B01B0933D
:100DA0009C0180919D0190919E01A0919F01B09125
:100DB000A0010196A11DB11D80939D0190939E01FC
:100DC000A0939F01B093A001BF91AF919F918F918C
:100DD0003F912F910F900FBE0F901F90189526E80E
:100DE000230F0296A11DB11DD2CF1092A401109223
:100DF000A30188EE93E0A0E0B0E08093A50190937A
:100E0000A601A093A701B093A80183E891E0909375
:100E1000A2018093A10185EC90E09093AE018093B4
:100E2000AD0184EC90E09093B0018093AF0180EC31
:100E300090E09093B2018093B10181EC90E09093A7
:100E4000B4018093B30182EC90E09093B60180935B
:100E5000B50186EC90E09093B8018093B7011092B1
:100E6000BA011092BB011092BC011092BD01109208
:100E70003F021092450210924C0210924D021092C5
:100E80004E0210924F0281E080934B028093480201
:100E90001092490292E090934A0280933E0288E4C5
:100EA00090E090934302809342020E94BD09909388
:100EB000470280934602009769F128E4FC011192F1
:100EC0002A95E9F788E190E09093410280934002EF
:100ED00082E08093440280913F02882339F061E0F0
:100EE00082E00E94540282E00E940402E0EBF0E003
:100EF000E491F0E0EE0FFF1FEC55FF4F85919491C8
:100F00009093510280935002E2E9F0E0E491E09383
:100F1000520208951092430210924202109241022E
:100F200010924002D5CF789484B5826084BD84B598
:100F3000816084BD85B5826085BD85B5816085BDD4
:100F400080916E00816080936E001092810080918C
:100F50008100826080938100809181008160809314
:100F60008100809180008160809380008091B10039
:100F700084608093B1008091B00081608093B00064
:100F800080917A00846080937A0080917A008260F8
:100F900080937A0080917A00816080937A008091BA
:100FA0007A00806880937A001092C100E091B101CC
:100FB000F091B20182E08083E091B101F091B20141
:100FC0001082E091AD01F091AE011082E091AF018D
:100FD000F091B00180E180831092B901E091B501F8
:100FE000F091B60186E08083E091B301F091B40105
:100FF000808180618083E091B301F091B4018081B0
:1010000088608083E091B301F091B40180818068B1
:101010008083E091B301F091B40180818F7D808362
:1010200061E08DE00E94540261E082E00E9454027F
:1010300061E085E00E94540262E084E00E94540274
:1010400062E086E00E9454028DE00E94040285E086
:101050000E9404028091440287FD07C061E00E9463
:101060005402809144020E94040281E080933F0276
:101070008091460290914702892B11F00E94B5029F
:1010800083E991E00E94220680E091E00E9422061E
:1010900080E480937C0080917A00806480937A0061
:1010A00080917A0086FDFCCF809178009091790044
:1010B0000E9421090E946C03D0E0C0E068E270E069
:1010C000CE010E9442042196C634D105B9F70AE048
:1010D00010E0C4E680E0E82E80E0F82E0E941C09B3
:1010E000B8010E94A3098930910508F046C0FC01AF
:1010F000E458F74F0C94B709850895089C089F0899
:10110000A608A9088508B708BA088AE090E00E94F6
:101110003F060E940706E114F10401F30E94380122
:101120008823E1F20E940000D9CF85E090E00E9480
:101130003F060E94D505EFCF88E090E0E8CF86E03B
:1011400090E00E943F060E949705E5CF83E090E083
:10115000DECF8FE090E00E943F06C89FB001C99F9C
:10116000700D112480E490E00E944204D4CF8AE004
:1011700090E0DDCF85E090E0EECF8AE090E0E1CF37
:101180008091460290914702009711F00E94590AFF
:101190008091440287FD03C060E00C9454020895DE
:1011A0008F929F92AF92BF92CF92DF92EF92FF9277
:1011B000CF93DF93EC01688179818A819B816115EE
:1011C00071058105910521F464E279ED8BE597E0E5
:1011D0002DE133EF41E050E00E942C0949015A0112
:1011E0009B01AC01A7EAB1E40E944B096B017C01B1
:1011F000ACEEB4EFA50194010E945909DC01CB01CA
:101200008C0D9D1DAE1DBF1DB7FF03C00197A10929
:10121000B04888839983AA83BB839F77DF91CF915E
:10122000FF90EF90DF90CF90BF90AF909F908F9006
:1012300008950E94D008089585E791E00E94D008A3
:101240000895B0E0A0E08093750190937601A0939B
:101250007701B09378010895052E97FB1EF4009452
:101260000E94430957FD07D00E945E0907FC03D086
:101270004EF40C94430950954095309521953F4F7D
:101280004F4F5F4F089590958095709561957F4F72
:101290008F4F9F4F08950E948009A59F900DB49F86
:1012A000900DA49F800D911D11240895B7FF0C94FB
:1012B0004B090E944B09821B930B0895A1E21A2E41
:1012C000AA1BBB1BFD010DC0AA1FBB1FEE1FFF1FEA
:1012D000A217B307E407F50720F0A21BB30BE40B3A
:1012E000F50B661F771F881F991F1A9469F7609581
:1012F0007095809590959B01AC01BD01CF0108953B
:10130000A29FB001B39FC001A39F700D811D112446
:10131000911DB29F700D811D1124911D0895AA1B6E
:10132000BB1B51E107C0AA1FBB1FA617B70710F0D0
:10133000A61BB70B881F991F5A95A9F78095909502
:10134000BC01CD01089597FB072E16F4009407D039
:1013500077FD09D00E948F0907FC05D03EF49095D7
:1013600081959F4F0895709561957F4F0895EE0F79
:10137000FF1F0590F491E02D09940F931F93CF93D5
:10138000DF938230910510F482E090E0E091550205
:10139000F091560230E020E0B0E0A0E0309799F400
:1013A0002115310509F44AC0281B390B24303105B9
:1013B000D8F58A819B816115710589F1FB019383C1
:1013C0008283FE0111C0408151810281138148173F
:1013D0005907E0F04817590799F4109761F01296F1
:1013E0000C93129713961C933296CF01DF91CF91F5
:1013F0001F910F9108950093550210935602F4CF58
:101400002115310551F04217530738F0A901DB01CE
:101410009A01BD01DF01F801C1CFEF01F9CF90932F
:10142000560280935502CDCFFE01E20FF31F819348
:1014300091932250310939832883D7CF20915302C9
:1014400030915402232B41F420917B0130917C0197
:1014500030935402209353022091790130917A0104
:101460002115310541F42DB73EB740917D015091D2
:101470007E01241B350BE0915302F0915402E217D8
:10148000F307A0F42E1B3F0B2817390778F0AC01A7
:101490004E5F5F4F2417350748F04E0F5F1F509384
:1014A000540240935302819391939FCFF0E0E0E088
:1014B0009CCFCF93DF930097E9F0FC013297138222
:1014C0001282A0915502B0915602ED0130E020E069
:1014D0001097A1F420813181820F931F2091530234
:1014E000309154022817390709F061C0F093540273
:1014F000E0935302DF91CF910895EA01CE17DF0701
:10150000E8F54A815B819E0141155105B1F7E9017A
:10151000FB83EA8349915991C40FD51FEC17FD074E
:1015200061F4808191810296840F951FE90199836E
:101530008883828193819B838A83F0E0E0E0129626
:101540008D919C9113970097B9F52D913C9111972E
:10155000CD010296820F931F2091530230915402C5
:101560002817390739F6309751F510925602109224
:101570005502B0935402A0935302BCCFD383C283CD
:1015800040815181840F951FC817D90761F44E5FC0
:101590005F4F88819981480F591F518340838A8109
:1015A0009B81938382832115310509F0B0CFF0939D
:1015B0005602E09355029ECFFD01DC01C0CF13829D
:1015C0001282D7CF10E0C2E6D0E004C0FE010E9434
:0E15D000B7092196C336D107C9F7F894FFCFAB
:1015DE006D616465206279204A61636B205768698A
:1015EE007468616D207573696E67206C6F747320FB
:1015FE006F6620626F72726F77656420636F6465C9
:10160E002120746869732076657273696F6E206627
:10161E00726F6D2030342F31322F32310A6874746C
:10162E0070733A2F2F6769746875622E636F6D2F12
:10163E006A7768697468616D2F4E656F43616E6479
:10164E006C652F0A000100000000005702800000A8
:10165E000000006E01CE00FB00BB012C010A011E32
:04166E00010D0A0060
:00000001FF
