:100000002FC049C048C047C046C002C344C043C017
:1000100042C041C040C03FC03EC03DC03CC0A7C37D
:1000200097C399C39BC39DC39FC3A1C3A5C3A9C3C2
:100030000000000037000000000036000000000053
:100040003800020202020202020202020102040855
:10005000102020041008010200000400000000002D
:1000600011241FBECFE5D2E0DEBFCDBF10E0A0E679
:10007000B0E0EEE7F9E002C005900D92AE37B107AF
:10008000D9F720E0AEE7B0E001C01D92AA3FB20769
:10009000E1F708D372C4B4CF823081F018F4813014
:1000A00051F00895833019F0843009F008958CB52B
:1000B0008F7D8CBD08958AB58F7702C08AB58F7DFC
:1000C0008ABD08951F93CF93DF93E6E5F0E0949106
:1000D000ECE4F0E0D491E2E4F0E0C491CC23C9F088
:1000E000182F992311F0892FD7DFEC2FF0E0EE0FB6
:1000F000FF1FE45CFF4FA591B4919FB7F8941111D5
:1001000004C08C91D095D82302C0EC91DE2BDC93F7
:100110009FBFDF91CF911F910895CF93DF93282F39
:1001200030E0F901EA5AFF4F8491F901E45BFF4F97
:10013000D491F901EE5BFF4FC491CC2389F081117A
:10014000ABDFEC2FF0E0EE0FFF1FEA5CFF4FA59155
:10015000B491EC91ED2381E090E021F480E002C0C5
:1001600080E090E0DF91CF910895CF93DF9390E00E
:10017000FC01E45BFF4F2491FC01EE5BFF4F849197
:10018000882361F190E0880F991FFC01E05DFF4F2B
:10019000C591D491FC01E45CFF4FA591B49161112C
:1001A00009C09FB7F8948881209582238883EC91B9
:1001B0002E230BC0623061F49FB7F8948881322FF0
:1001C000309583238883EC912E2B2C939FBF06C000
:1001D0008FB7F894E8812E2B28838FBFDF91CF91C2
:1001E00008953FB7F8948091830090918400A09186
:1001F0008500B091860022B708B601FE05C02F3FEA
:1002000019F00196A11DB11D3FBFBA2FA92F982F3C
:100210008827820F911DA11DB11DBC01CD0143E0B6
:10022000660F771F881F991F4A95D1F708950F937E
:100230001F93CF93DF93DB01EA0115950795E82F14
:10024000F0E0EC59FF4FE081F0E0EE0FFF1FEE0F02
:10025000FF1FEF56FF4F8FEF8083C801B90155D3C1
:10026000880F892F881F990B97FF02C080E090E0CC
:100270008183C801BE0149D3880F892F881F990B3C
:1002800097FF02C080E090E08283C801BD013DD3AA
:10029000880F892F881F990B97FF02C080E090E09C
:1002A0008383DF91CF911F910F910895AF92BF92F9
:1002B000CF92DF92EF92FF920F931F93CF93DF9332
:1002C0005C01609187007091880080918900909115
:1002D0008A002DE1C22E2EE4D22EE12CF12CA701B2
:1002E0009601F1D2CB0177276627A7019601EBD2C1
:1002F000E901F12CCC24CA94D12C8D2F9927853576
:10030000910548F463E070E000D3B601681B790BF7
:1003100040E050E01AC08A3A910560F48555910991
:1003200063E070E0F2D2AC01C601841B950B60E083
:1003300070E00BC08A5A910963E070E0E6D2BC011C
:10034000A601481B590B80E090E085019C018F2D90
:100350006EDFC35CD54FF39489E1F812CECFDF9105
:10036000CF911F910F91FF90EF90DF90CF90BF90B2
:10037000AF9008954F925F926F927F929F92AF924B
:10038000BF92CF92DF92EF92FF920F931F93CF9382
:10039000DF936C017B018AEFA82E80E0B82E90E4F9
:1003A000992E1E141F040CF06BC084E0B6DE892B5E
:1003B00001F5C0E0D0E08E010F7011270C0D1D1D5E
:1003C000075011090F3F110519F014F00FEF10E05D
:1003D00017FF02C000E010E025E030E046E450E006
:1003E00068EC70E08C2F23DF2196C931D10519F715
:1003F00009C083E092DE892B19F488E790E001C000
:10040000C60154DFC0918B00D0918C00C056D04FF4
:10041000D0938C00C0938B00409087005090880050
:100420006090890070908A0084E0480E511C611C25
:10043000711C4092870050928800609289007092EF
:100440008A0012E0CEDE16956C1B7D0B77FDFACF8D
:10045000852D8170812736DE84E0E81AF108EDE809
:10046000F0E081918FB99EB88FB7F894769902C069
:10047000689AFCCF8FBF8FB1AE16BF0691F791CFB0
:10048000DF91CF911F910F91FF90EF90DF90CF9070
:10049000BF90AF909F907F906F905F904F90089526
:1004A000EF92FF920F931F93CF93DF93EC017B01A9
:1004B00006E410E0C017D10734F4B701C8015ADFD1
:1004C00001501109F7CFC634D1052CF4B701CE0184
:1004D00051DF2196F8CFDF91CF911F910F91FF90BF
:1004E000EF9008950F931F93CF93DF938C01000F2C
:1004F000111F000F111F6AE070E080E490E0D0DF70
:1005000066E070E08CE390E0CBDFC0E0D0E0C017A5
:10051000D1073CF463E070E082E390E0C1DF219614
:10052000F6CF66E070E08CE390E0BADF66E070E062
:100530008CE390E0B5DF6AE070E080E490E0B0DF4B
:100540006AE070E080E490E0DF91CF911F910F911D
:10055000A7CF0F931F93CF93DF938C01000F111F31
:10056000000F111F6AE070E080E490E099DFC0E0C6
:10057000D0E0C017D1073CF466E070E08CE390E077
:100580008FDF2196F6CF6AE070E080E490E088DFAC
:100590006AE070E080E490E083DF6AE070E080E48D
:1005A00090E0DF91CF911F910F917ACF0F931F931E
:1005B000CF93DF938C01000F111F000F111FC0E0BC
:1005C000D0E0C017D1073CF46AE070E080E490E02E
:1005D00067DF2196F6CFDF91CF911F910F9108959C
:1005E000CF93DF93EC012BD165E070E09FD18C0FAE
:1005F0009D1F02971816190634F4853191052CF0C9
:1006000084E190E002C081E090E0DF91CF91089515
:100610001F920F920FB60F9211242F933F938F9337
:100620009F93AF93BF9380917F0090918000A091A2
:100630008100B091820030917E0026E0230F2D379B
:1006400020F40296A11DB11D05C029E8230F0396D1
:10065000A11DB11D20937E0080937F0090938000A8
:10066000A0938100B09382008091830090918400D8
:10067000A0918500B09186000196A11DB11D8093C7
:10068000830090938400A0938500B0938600BF916F
:10069000AF919F918F913F912F910F900FBE0F902F
:1006A0001F90189578948AB582608ABD8AB581605A
:1006B0008ABD83B7826083BF83B7816083BF89B7F8
:1006C000826089BF80B7826080BF80B7816080BF51
:1006D000329A319A3098379A8CB580648CBD8DB13E
:1006E0008F718DB98DB18A618DB9BA9AB99AB8985E
:1006F00061E080E03ADD80E0E5DC62E083E035DD6A
:1007000062E084E032DD8DE6EDE8F0E0DF011D928D
:100710008A95E9F781E090E096D063DD70938C00D4
:1007200060938B00109287001092880010928900CD
:1007300010928A00CAE0D0E000E010E080D0BE0154
:10074000F5D08930910540F5FC01E15FFF4F099438
:1007500085E090E013C088E090E00BC086E090E078
:100760001DC083E090E005C08FE090E00CC08AE0FF
:1007700090E036DF1BDF14C08AE090E031DFE9DE75
:100780000FC085E090E02CDF64E670E0BED0BC01D5
:1007900080E490E0EFDD04C08AE090E021DFA2DE9B
:1007A0000115110559F22CDCC9CF8F929F92AF929F
:1007B000BF92CF92DF92EF92FF92CF93DF93EC0143
:1007C000688179818A819B81611571058105910517
:1007D00021F464E279ED8BE597E02DE133EF41E020
:1007E00050E055D049015A0127EA31E440E050E099
:1007F00035D06B017C012CEE34EF4FEF5FEFC5017C
:10080000B4012CD0DC01CB018C0D9D1DAE1DBF1D94
:10081000B7FF03C00197A109B04888839983AA83D1
:10082000BB839F77DF91CF91FF90EF90DF90CF90C8
:10083000BF90AF909F908F900895B7DF089580E6A6
:1008400090E0B3DF0895A0E0B0E080936000909363
:100850006100A0936200B09363000895EE27FF2724
:10086000AA27BB2708C0A20FB31FE41FF51F220F42
:10087000331F441F551F969587957795679598F375
:100880007040A9F7009799F7BD01CF010895052E93
:1008900097FB16F400940FD057FD05D014D007FC39
:1008A00002D046F408C050954095309521953F4FB1
:1008B0004F4F5F4F089590958095709561957F4F4C
:1008C0008F4F9F4F0895A1E21A2EAA1BBB1BFD015B
:1008D0000DC0AA1FBB1FEE1FFF1FA217B307E4071F
:1008E000F50720F0A21BB30BE40BF50B661F771F77
:1008F000881F991F1A9469F7609570958095909557
:100900009B01AC01BD01CF0108950024552704C00F
:10091000080E591F880F991F009729F07695679543
:10092000B8F37105B9F7802D952F089597FB072E21
:1009300016F4009406D077FD08D00BD007FC05D044
:100940003EF4909581959F4F0895709561957F4FE6
:100950000895AA1BBB1B51E107C0AA1FBB1FA61706
:10096000B70710F0A61BB70B881F991F5A95A9F758
:0E09700080959095BC01CD010895F894FFCFBD
:10097E0001000000131415070809000102101112DE
:0E098E00030F0E0D0605040C0B0A18171600B9
:00000001FF
